:020000040800F2
:100000008025002001010008090100080B010008FB
:100010000D0100080F010008110100080000000098
:1000200000000000000000000000000013010008B4
:10003000150100080000000017010008F11A00086F
:10004000D54E000875170008C91B00081B010008E1
:1000500031150008C1190008011300081513000824
:1000600017130008191300081B1300084112000899
:100070004312000845120008471200084912000800
:100080004B1200085F120008110B00081B0100084A
:100090001B0100081B0100081B0100081D130008BC
:1000A000CB1B0008D11B0008CF1B0008CD1B00088C
:1000B0001B0100081B010008D51B0008B31600082F
:1000C000B1160008B7160008B5160008C5190008D3
:1000D000C71900081B0100081B0100081B010008CC
:1000E00013130008C3190008391F0008DFF80CD0EB
:1000F00000F070FC00480047915D0008802500205A
:100100000648804706480047FEE7FEE7FEE7FEE7B1
:10011000FEE7FEE7FEE7FEE7FEE7FEE7691B0008F5
:10012000ED0000080649074A0868504343F23902C7
:10013000104408604008704701490860704700009B
:10014000B00200206D4EC64110B5431A934209D249
:100150008318881803E010F8011D03F8011D521ED2
:10016000F9D210BD40EA01039B0703D009E008C99A
:10017000121F08C0042AFAD203E011F8013B00F86C
:10018000013B521EF9D210BDD2B201E000F8012BA2
:10019000491EFBD270470022F6E710B513460A4607
:1001A00004461946FFF7F0FF204610BDCBB203E02E
:1001B0000178994203D0401C521EF9D200207047AA
:1001C000F0B480EA0102D40F4200B2EB410F02D238
:1001D0000246084611464A0042D0C30DDDB2C1F3C3
:1001E000C752AD1A202D35DAC1F3160141F40002D1
:1001F00004B15242C5F1200602FA06F12A41104428
:10020000B3EBD05F23D0C4B1012DA0EBC35009DC08
:10021000F0BC4FF0004202EAC352DBB200F500002E
:1002200000F0F5BA400000F1807000EBC350A0F17F
:10023000807040EAD170490009E0490841EAC07184
:10024000A0EBC35000F50000400800EBC350F0BC29
:1002500000F0D4BA6142012202EB4101001BF6E733
:10026000F0BC704781F00041AAE780F00040A7E7AA
:1002700080EA010210B502F00043400022D04A009B
:100280001FD0010E01EB1261C0F35600C2F35602FB
:1002900040F4000042F40002A0FB022000047F3979
:1002A000140400D0401C50EA124001D44000491E02
:1002B000C2B20C0604EBD010401C4008802A02D0C9
:1002C00003E0002010BD20F00100002900DA00202A
:1002D000184310BD30B480EA010202F0004530F04E
:1002E000004221F0004013D090B1C30DD40DC2F3F1
:1002F0001601C0F31600E41A41F4000140F40002B4
:100300007D34914201D3641C00E04900002C02DAE4
:1003100030BC002070474FF400000023914201D30D
:10032000891A034340084FEA4101F7D151B1914284
:1003300002D14FF0004105E002D24FF0010101E08F
:100340006FF0010103EBC450284430BC00F056BAF2
:100350002DE9FE4F804681EA0300C00F0C46009055
:1003600021F0004123F00045B8EB0200A94105D27D
:100370004046214690461C460B46024623F000406C
:10038000104347D0270DC7F30A00C3F30A51029068
:10039000401A019040286BDAC3F3130040F4801B2D
:1003A0000098924620B10023D2EB030A63EB0B0BBB
:1003B00001985946C0F14002504600F0FEF9064649
:1003C0000D4650465946019A00F006FA10EB080017
:1003D0006141002487EA115284EAE7731A4340D04E
:1003E000009A62B3019A012A4FEA075215DC001BFA
:1003F00061EB02014FF0004202EA0752CDE90042F0
:10040000001C41F5801132462B4600F03DFA03B046
:10041000BDE8F08F40462146F9E7001B61EB020181
:10042000001C41F5801300185B412018A2F500174D
:1004300047EB030140EAD570B6196D4111E06D0834
:100440004FEA360645EAC0754FEA0752001B61EBDA
:100450000201001C41F5801149084FEA30000019E3
:10046000514132462B4603B0BDE8F04F00F0FDB9D4
:100470000098012240000023D0EB020263EBE073FE
:10048000009821464FEAE074B8EB000061EB0401EC
:10049000E9E783F000435BE781F0004158E72DE98D
:1004A000FE4F81EA030404F0004421F0004100946F
:1004B0004FF0000B23F0004350EA01045ED052EAF3
:1004C00003045BD0C3F30A54C1F30A552C44A4F2CD
:1004D000F3340194A0FB0254C1F3130141F48011E1
:1004E000C3F3130343F4801301FB024400FB034EE8
:1004F000840A970A44EA815447EA8357A4FB0768B1
:1005000002958D0A05FB07854FEA932C04FB0C54DA
:100510002705029D4FEA065847EA1637B5EB08054E
:100520006EEB070C870E920E47EA811742EA8312A0
:10053000A7FB0201B6EB0B0164EB00042B0D43EAB1
:100540000C335E1844EB1C50DA465146E7FB0201BF
:10055000C5F313044FEA0B3343EA14534FEA043252
:10056000019C43EA0603A4F10C040294009CCDE92B
:1005700000B400F089F903B0BDE8F08F0020014617
:10058000F9E72DE9F04D81EA030404F0004B21F076
:10059000004514464FF0000A23F0004150EA0502DE
:1005A00020D054EA01021DD0C5F30A570246C5F314
:1005B0001303C1F31300C1F30A5640F4801543F44A
:1005C0008013A7EB0608101BD64608F2FD3873EB24
:1005D000050002D308F1010801E092185B41B8F16F
:1005E000000F03DA00200146BDE8F08D00204FF433
:1005F0008011064684460EE0171B73EB050705D3F2
:10060000121B63EB050306434CEA010C49084FEA51
:10061000300092185B4150EA0107EDD152EA030025
:1006200012D082EA040083EA0501084305D0101BBA
:10063000AB4106D20122002306E000224FF0004326
:1006400002E06FF0010253101AEB06004CEB085168
:1006500010EB0A0041EB0B01BDE8F04D00F005B9CD
:10066000C10F80EAE0700844CA079623002100F019
:10067000CEB896230022114600F0C9B820F0004001
:10068000C10DC0F3160040F400007F2901DA0020FC
:100690007047962903DCC1F19601C840704796392E
:1006A0008840704700F0004230F000400AD0C10D91
:1006B00001F56071C0F3160042EA0151C20840071B
:1006C0001143704700200146704701F0004330B4E9
:1006D00021F0004150EA010206D00A0DA2F5607235
:1006E000C1F31301002A02DC30BC00207047440F24
:1006F00044EAC104C100E01830BC00EBC25000F075
:100700007DB80000002801DBC0F10040002901DBBA
:10071000C1F1004181427047002801DBC0F1004077
:10072000002901DBC1F100418842704730B50B461A
:10073000014600202022012409E021FA02F59D4211
:1007400005D303FA02F5491B04FA02F52844151EE5
:10075000A2F10102F1DC30BD2DE9F05F0546002079
:1007600092469B4688460646814640241BE0284622
:1007700041464746224600F03FF953465A46C01AC2
:10078000914110D311461846224600F016F82D1A52
:1007900067EB01084F4622460120002100F00DF8CA
:1007A00017EB00094E41201EA4F10104DFDC48468E
:1007B00031462A464346BDE8F09F202A04DB203A12
:1007C00000FA02F1002070479140C2F1200320FAA4
:1007D00003F3194390407047202A06DBCB17203AD9
:1007E00041FA02F043EAE07306E041FA02F3D04036
:1007F000C2F1200291400843194670470029A8BF62
:100800007047401C490008BF20F00100704710B439
:10081000B0FA80FC00FA0CF050EA010404BF10BCEE
:10082000704749B1CCF1200421FA04F411FA0CF11B
:1008300018BF012121430843A3EB0C01CB1D4FEA54
:1008400000614FEA102042BF002010BC704700EB4F
:10085000C35010440029A4BF10BC7047401C49007D
:1008600008BF20F0010010BC704710B5141E73F1D2
:10087000000408DA401C41F1000192185B411A4360
:1008800001D120F0010010BD2DE9F04D92469B46AC
:1008900011B1B1FA81F202E0B0FA80F22032904652
:1008A000FFF78BFF04460F4640EA0A0041EA0B01BE
:1008B00053465A46084313D0114653EA010019D053
:1008C000C8F14002504600F097F805460E465046E3
:1008D00059464246FFF771FF084305D0012004E066
:1008E00020463946BDE8F08D0020054346EAE07613
:1008F0002C4337430A986305E40AA0EB0800002262
:10090000FD0A44EA47540A3002D500200146E9E7CF
:10091000010510196941DDE9084500196941BDE883
:10092000F04DA2E770B521F0004303430CD0C1F3B2
:100930000A550024D5EB040564EB0403D617AD1A61
:10094000B34102DB0020014670BD201841EB02518B
:1009500070BD0EB5C10F80EAE0700844CA070021DF
:1009600040F233438DE80E000A460B46FFF78CFF3A
:1009700003B000BDC1F30A52C1F3130140F2FF33CB
:1009800041F480119A4202DA00200146704740F299
:1009900033439A42A2F2334202DC524200F02CB8B6
:1009A000FFF70BBF30B5041E71F1000404DB4FF0FC
:1009B0000044404264EB0101141E73F1000405DBA6
:1009C0001C464FF00043524263EB0403994208BFB8
:1009D000904230BD064C074D06E0E06840F0010350
:1009E00094E8070098471034AC42F6D3FFF782FB37
:1009F000C06F0008E06F0008202A04DB203A21FACB
:100A000002F00021704721FA02F3D040C2F1200227
:100A100091400843194670472DE9F04D00231A46CE
:100A20001B1A8A4103DB00200146BDE8F08DC1F3AB
:100A30000A52C1F3130141F480154FF0000BD107A6
:100A400002D100186D41521E0027044640F2FF11EA
:100A5000384601EB620A3E468046024600204FF4CB
:100A60008011FFF7C9FFC2197141BB1846EB0100A5
:100A7000B4EB030C75EB000C04D3E41A65EB000532
:100A800017460E46241908F101006D4180463428AE
:100A9000E3DDF91946EB0600091BA84103D24FF02C
:100AA000FF32134601E0002213461BEB070046EB22
:100AB0000A51BDE8F04DFFF7D8BE70B58C1810F89C
:100AC000015B15F0070301D110F8013B2A1106D193
:100AD00010F8012B03E010F8016B01F8016B5B1EAD
:100AE000F9D12B0705D40023521E0DD401F8013B88
:100AF000FAE710F8013BCB1A921C03E013F8015BF4
:100B000001F8015B521EF9D5A142D8D3002070BD77
:100B1000704721B1826842F00102826003E082687E
:100B200022F001028260704710B5044612488442E8
:100B300008D10121401500F0C9FE0021601500F028
:100B4000C5FE17E00D48844208D10121001500F0D0
:100B5000BDFE0021201500F0B9FE0BE008488442DC
:100B600008D10121C80300F0B1FE00214FF400407C
:100B700000F0ACFE10BD0000002401400028014040
:100B8000003C0140014600208A6802F004020AB1DC
:100B9000012000E000207047014600208A6802F032
:100BA00008020AB1012000E00020704730B502467B
:100BB0000020002350680F4C20400D790C6844EA57
:100BC00005242043506090680B4C2040D1E902542A
:100BD0002C434D7944EA450420439060D06A20F4C8
:100BE00070000C7C641EE4B2234340EA0350D062E0
:100BF00030BD0000FFFEF0FFFDF7F1FF816841F01E
:100C0000080181607047816841F00401816070478C
:100C100000B589B00121052000F048FE0121C8027D
:100C200000F044FE0121084600F020FE4FF48070E1
:100C3000ADF8200018208DF8230003208DF8220045
:100C400008A9314800F096FC1D20ADF818002F4887
:100C500000682F49B0FBF1F0401E80B2ADF81400DF
:100C60000020ADF81A00ADF8160005A9294801F0DA
:100C700079F86020ADF804000120ADF806000020EE
:100C8000ADF80800ADF80A00ADF80C00ADF81000A2
:100C900001A9204801F010F808211E4801F058F879
:100CA00001211C4800F0D6FF01211A4800F0B4FFD2
:100CB0000021184800F0C2FF01225102154800F03F
:100CC000D8FF144834301449086014484860102094
:100CD000886040F2D220C86000200861802048610E
:100CE000400088618000C861002008624FF4005015
:100CF0004862002088620A4800F0E2FA01210848B0
:100D000000F0BCFA09B000BD00080140000000205E
:100D100000366E01002C0140C4020020400100207A
:100D20001C00024070B505460C4612484560C46080
:100D30000146114800F0C4FAA1B20F4800F0DEFAF3
:100D400001210E4800F07AFF01210B4800F096FACD
:100D500000BF202000F09EFA0028FAD000210748AA
:100D600000F06CFF0021044800F088FA202000F019
:100D700077FA70BDC40200201C000240002C014024
:100D800010B50348018803480068FFF704FA10BD56
:100D900032010020380100202DE9F04180460C4648
:100DA00017460F480088844201DBBDE8F08117B97F
:100DB0000B48068807E0E01986B209480088864299
:100DC00001DD07480688254605E04146284600F033
:100DD0003BF9681C85B2B542F7DB00BFE5E70000D0
:100DE0003001002001460148405C7047266B000836
:100DF0000448007804490978884201D103207047EB
:100E00000420FCE73F0100203C01002010B5024611
:100E10003F480088824201DB002010BD3D48007839
:100E20003D4B1B78984232D102EB42003B4B1B6892
:100E3000C1183B480078E0B137480078085C0002F0
:100E4000374B1B78B0FBF3F00004364B1B78CB5CC0
:100E50001B02334C2478B3FBF4F340EA0320324BFB
:100E60001B78CB5C1B022E4C2478B3FBF4F31843A5
:100E7000D3E729480078085C00042A4B1B78CB5C38
:100E800040EA0320284B1B78CB5C1843C5E7234876
:100E9000006800EB82012248007830B31D480078DA
:100EA000085C00021E4B1B78B0FBF3F003061A48E7
:100EB0000078085C00021A4C2478B0FBF4F043EA96
:100EC0000040184B1B78CB5C1B02154C2478B3FBFD
:100ED000F4F340EA0320144B1B78CB5C1B02104C4C
:100EE0002478B3FBF4F3184397E70A480078085CCA
:100EF0000006094B1B78CB5C40EA0340094B1B788A
:100F0000CB5C40EA0320084B1B78CB5C184384E79A
:100F1000300100203F0100203C010020380100206A
:100F2000340100203D0100203E01002001480068FE
:100F3000704700003801002070B505460C46FFF7E9
:100F400067FE1D48006804F0FBFE00201B49087086
:100F5000A0091B490870C4F301101A490870C4F3B2
:100F600081001949087004F00300184908701448FA
:100F7000007814490978884201D1032000E0042058
:100F80006843134908800846008804F0BBFF0A49FB
:100F900008600846006840B10D48018806480068AE
:100FA000FFF7F9F80B48058004E0002008490880A5
:100FB0000849088070BD000038010020340100207D
:100FC0003F0100203C0100203D0100203E010020A7
:100FD0003201002030010020F0B50146481CC2B2A9
:100FE00016480078824227D0154D2B68134D2D7876
:100FF0006D1EECB20CB900200DE0FF2905D14FF6B3
:10100000FF7595FBF4F5A8B205E00125C5EB0225B7
:1010100095FBF4F5A8B2002507E01E7806FB00F763
:101020003F0A03F8017B6F1CBDB2064F3F88BD42EB
:10103000F3DB024D2A7000BFF0BD00003401002038
:101040003801002032010020F0B502462148008816
:1010500082423EDAC1F30743C1F30724CDB21E4EEC
:1010600036785EB11C4E36785E4333121A4E3678AF
:1010700066433412184E36786E433512174E367862
:10108000174F3F78BE4205D102EB4206154F3F682D
:10109000F01914E0134F3F6807EB82000E0E0E4F5D
:1010A0003F7827B10C4F3F7877433F1200E0374637
:1010B000DFF828C09CF800C000F80C7000BF084E94
:1010C00036788355084E36788455084E36788555DF
:1010D00000BFF0BD30010020340100203F0100209E
:1010E0003C010020380100203D0100203E0100208D
:1010F000F0B50446059D1A48008884422FDA194E3F
:1011000036787EB1174E36784E433112154E36780A
:1011100056433212134E36785E433312114E3678F0
:101120006E433512104E3678104F3F78BE4205D1CF
:1011300004EB44060E4F3F68F01906E00C4E36688B
:1011400006EB8400084E36788555084E3678815572
:10115000084E36788255084E3678835500BFF0BD6C
:1011600030010020340100203F0100203C0100201C
:10117000380100203D0100203E01002070B52048CC
:10118000006800B970BD1F480088042101EB0016FB
:101190000024304604F0B6FE0446002C2ED0002574
:1011A000002013E0164909680A5C80210AE002EA7F
:1011B00001030BB1112300E0092324F815306B1C47
:1011C0009DB249100029F2DC411C88B20D49098802
:1011D0008842E7DB4FF400422846691C8DB224F8B0
:1011E00010202846691C8DB224F810203146204674
:1011F000FFF798FD204604F0A3FD00BF00BFC1E744
:10120000380100203201002001460148405C70474F
:10121000266A000808B50121082000F047FB80205D
:10122000ADF8000003208DF8020010208DF80300B7
:101230006946024800F09EF908BD0000000C01401C
:101240007047704770477047704710B54FF40010F3
:1012500000F020F84FF4001000F002F810BD7047C5
:1012600000F0805111B10349086001E00249486073
:1012700070470000040402400000024021B10268EF
:1012800042F00102026004E002684FF6FE731A4069
:101290000260704701460020002201F0805313B124
:1012A000054B1A6801E0054B1A6802EA01030BB10D
:1012B000012000E0002070470004024000000240CE
:1012C00010B50022026847F6F0739A430C6A8B68E7
:1012D00023430C6923434C6923438C692343CC6922
:1012E00023434C6A23438C6A23431A430260CB682E
:1012F00043600B6883604B68C36010BD41607047FA
:1013000010B5012000F0B6F810B1012000F0ACF8E3
:1013100010BD7047704770477047704710B5202068
:1013200000F0A8F800284BD02021434800F0ADF988
:10133000002842D1322004F07DFC20213E4800F0FC
:10134000A4F9002839D13DA003F0C6FD3F4800783C
:10135000042805DA3D480078401C3C49087002E04A
:1013600001203A49087039480078012805D104F075
:1013700053FC022004F042FC1FE0344800780228AD
:1013800006D1012004F03AFC022004F045FC14E0F0
:101390002E480078032806D1012004F03DFC0220ED
:1013A00004F03AFC09E029480078032805D101201F
:1013B00004F024FC022004F021FC202000F054F86A
:1013C000402000F057F878B340211B4800F05DF949
:1013D00048BB322004F02EFC4021174800F055F99C
:1013E00008BB1BA003F078FD1848007802280DD137
:1013F0001B480078462805DA19480078401C18492F
:10140000087015E000201649087011E00F480078B8
:1014100004280DD113480078022806DA1148007814
:10142000401C1049087003E005E001200D490870D8
:10143000402000F019F810BD000C01404B657931D7
:101440002070726573736564210D0A002401002009
:101450004B6579322070726573736564210D0A00E3
:10146000300000202601002001490860704700007C
:1014700014040140014600200022074B1B6803EAC8
:101480000102054B14331B680B4013B10AB1012054
:1014900000E00020704700000004014000212349C3
:1014A0008279002A3AD00A46126803689A430B46AA
:1014B0001A600A1D126803689A430B1D1A600279AC
:1014C00011440A6803681A430A60184A083212680D
:1014D00003689A43154B08331A601A1D1268036893
:1014E0009A43124B0C331A604279102A0ED11A1FFC
:1014F000126803681A430D4B08331A601A1D1268EC
:1015000003681A43094B0C331A600DE0074942790E
:1015100011440A6803681A430A6005E0027911441D
:101520000A6803689A430A6070470000000401409B
:101530007047000030B500228B071C0F0F2303FA01
:1015400004F20B4B8C1053F824309343084C8D104D
:1015500044F8253023468C1053F824308C07240F90
:1015600000FA04F42343024C8D1044F8253030BDBA
:10157000080001402DE9F041024600250026002028
:1015800000230024002791F803C00CF00F0591F808
:1015900003C00CF0100CBCF1000F03D091F802C096
:1015A0004CEA050591F800C0BCF1000F31D0146879
:1015B00000202BE04FF0010C0CFA00F3B1F800C052
:1015C0000CEA03069E4220D183004FF00F0C0CFA68
:1015D00003F7BC4305FA03FC4CEA040491F803C08A
:1015E000BCF1280F06D14FF0010C0CFA00FCC2F838
:1015F00014C00AE091F803C0BCF1480F05D14FF0C8
:10160000010C0CFA00FCC2F810C0401C0828D1D311
:101610001460B1F800C0BCF1FF0F34DD5468002045
:101620002EE000F1080C4FF0010808FA0CF3B1F8B5
:1016300000C00CEA03069E4221D183004FF00F0C3C
:101640000CFA03F7BC4305FA03FC4CEA040491F8D6
:1016500003C0BCF1280F05D100F1080C08FA0CF802
:10166000C2F8148091F803C0BCF1480F07D100F113
:10167000080C4FF0010808FA0CF8C2F81080401C62
:101680000828CED35460BDE8F0810246002093685C
:101690000B400BB1012000E0002070474161704712
:1016A0000161704701480068704700002801002070
:1016B000704770477047704710B5002408210448F0
:1016C000FFF7E3FF08B1012400E00024204610BD2D
:1016D0000008014010B5002420210448FFF7D5FF81
:1016E00008B1012400E00024204610BD000801409C
:1016F00070B5002100230F22C47804B3154C246870
:1017000004F4E064C4F5E064210AC1F10403CA40B2
:10171000447804FA03F184781440214309010E4C03
:101720000678A155047804F01F050124AC40057823
:101730006D11AD0005F1E025C5F8004109E0047820
:1017400004F01F050124AC40044D0678761145F8DD
:10175000264070BD0CED00E000E400E080E100E018
:1017600002490143024A1160704700000000FA0577
:101770000CED00E07047000070B5C6B01C221749A0
:101780003FA8FEF7E1FC7C22154920A8FEF7DCFC0F
:101790007C22144901A8FEF7D7FC0A26002418E091
:1017A000002508E020A9095D3FAA32F8110000F0E9
:1017B0007FF9681C85B201A8005D20A9095D3FAAD8
:1017C00032F811104843B0FBF6F0A842EAD8601C8A
:1017D00084B2792CE4D346B070BD0000946900084F
:1017E000C86E0008446F000870B59EB0184B0FCB50
:1017F0001AAC0FC43422164910310DA8FEF7A4FC10
:101800003422134944316846FEF79EFC0A26002420
:101810001AE0002509E00DA931F814101AAA32F8CF
:10182000110000F045F9681C85B23DF814000DA9BF
:1018300031F814101AAA32F811104843B0FBF6F030
:10184000A842E8D8601C84B2192CE2D31EB070BD47
:10185000B069000801460020034A506820F4404067
:1018600008435060704700000010024029B1064A4A
:1018700052690243044B5A6104E0034A52698243AD
:10188000014B5A61704700000010024029B1064A1E
:10189000D2690243044BDA6104E0034AD26982430D
:1018A000014BDA61704700000010024029B1064A7E
:1018B00092690243044B9A6104E0034A92698243AD
:1018C000014B9A61704700000010024029B1064A9E
:1018D000D2680243044BDA6004E0034AD2688243D0
:1018E000014BDA60704700000010024030B5002163
:1018F0000022002400232D4D6D6805F00C0121B15C
:10190000042905D0082923D105E0294D056022E0EE
:10191000274D05601FE0254D6D6805F47012234DBD
:101920006D6805F48034022505EB92421CB9214D07
:10193000554305600BE01D4D6D6805F400351DB184
:101940001C4D5543056002E0194D5543056002E00A
:10195000174D056000BF00BF144D6D6805F0F00124
:101960000909154D6B5C0568DD4045600F4D6D68DC
:1019700005F4E061090A104D6B5C4568DD40856047
:101980000A4D6D6805F46051C90A0B4D6B5C4568E2
:10199000DD40C560054D6D6805F44041890B074D7C
:1019A0006B5CC568B5FBF3F5056130BD0010024006
:1019B00000127A0000093D001400002024000020DD
:1019C000704770477047704710B500F001F810BDC0
:1019D0000CB50020019000903348006840F480303E
:1019E0003149086000BF3048006800F400300090C2
:1019F0000198401C0190009818B90198B0F5A06FAB
:101A0000F1D12948006800F4003010B101200090A5
:101A100001E0002000900098012843D1234800688D
:101A200040F01000214908600846006820F00300DB
:101A300008600846006840F0020008601A484068E4
:101A4000194948600846406848600846406840F4C4
:101A5000806048600846406820F47C104860084672
:101A6000406840F4E81048600846006840F0807024
:101A7000086000BF0C48006800F000700028F9D032
:101A80000948406820F0030007494860084640685C
:101A900040F00200486000BF0348406800F00C00BE
:101AA0000828F9D10CBD00000010024000200240BF
:101AB00070B50446B4F57A7F11D00B48B0FBF4F54D
:101AC00080210A48FFF7ECFD284604F0BDF880218C
:101AD0000648FFF7E3FD284604F0B6F803E04FF4AC
:101AE0007A7004F0B1F870BD20A10700000C01402D
:101AF00002480068401C0149086070472801002026
:101B000030B5164800684FF47A72B0FBF2F1B1F1CB
:101B1000807F01D301201DE021F07F40401E4FF067
:101B2000E022506150170F22002807DA13071D0E1C
:101B30000B4B00F00F04241F1D5503E013071C0E70
:101B4000084B1C5400BF00204FF0E022906107209A
:101B50001061002008B100BFFEE730BD000000208A
:101B600018ED00E000E400E010B51348006840F014
:101B700001001149086008464068104908400E49B4
:101B80004860084600680E4908400B49086008464E
:101B9000006820F4802008600846406820F4FE00B9
:101BA00048604FF41F008860FFF70EFF4FF00060A1
:101BB0000449086010BD0000001002400000FFF85A
:101BC000FFFFF6FE08ED00E0704770477047704772
:101BD0007047000010B501210C4800F053F880B1A7
:101BE0000B480088401C0A490880084600880828DD
:101BF00007DB00200880074908700021034800F037
:101C00001DF80121014800F016F810BD0008004041
:101C10002C0100202501002021B1028842F0800221
:101C2000028004E002884FF67F731A4002807047FA
:101C3000CA4302827047CA430282704721B10288B8
:101C400042F00102028004E002884FF6FE731A405F
:101C50000280704731B1B0F8442042F40042A0F84D
:101C6000442005E0B0F84420C2F30E02A0F844205E
:101C700070471AB183890B43838102E083898B43C8
:101C80008381704730B50246002000230024158A66
:101C900005EA0103958905EA010413B10CB101209D
:101CA00000E0002030BD1AB183890B43838102E03C
:101CB00083898B438381704770B500240022002301
:101CC000058C4FF6FE7635400584028C8388048BA4
:101CD0004FF68F752C40B51E2C400D882C43751E79
:101CE0002A400D892A434D882A43144DA8420BD01F
:101CF000134DA84208D0134DA84205D0124DA8425A
:101D000002D0124DA84213D14FF6F7752A404D89E3
:101D10002A434FF6FB752A408D882A434FF6FF650C
:101D20002B404FF6FF552B408D892B43CD892B43FC
:101D300083800483CD888586028470BD002C014099
:101D4000003401400040014000440140004801408F
:101D50000A460021018B4FF6F773194011430183A6
:101D600070470000002202881D4B98420ED01D4B88
:101D700098420BD0B0F1804F08D01B4B984205D051
:101D80001A4B984202D01A4B984204D14FF68F73E7
:101D90001A404B881A43174B984207D0164B98426B
:101DA00004D04FF6FF431A40CB881A4302808B8839
:101DB00083850B8803850A4B98420BD0094B9842C8
:101DC00008D00E4B984205D00D4B984202D00D4BD7
:101DD000984201D10B7A0386012383827047000069
:101DE000002C014000340140000400400008004085
:101DF000000C004000100040001400400040014072
:101E0000004401400048014010B50022002340F684
:101E10006A14A14200D100BF0A1201249440A3B267
:101E2000DC43048010BD21B1828942F400528281DA
:101E300004E082894DF6FF731A40828170470246A2
:101E40000020B1F5007F00D100BF13880B400BB11B
:101E5000012000E0002070472DE9F04786B00546DC
:101E60000E460024A24600BFA1460027B08900B15B
:101E700000BF2F462C8A4CF6FF700440F0880443C4
:101E80002C82AC894EF6F3100440B08831890843A7
:101E9000718908430443AC81AC8A4FF6FF4004408B
:101EA000B0890443AC8201A8FFF720FD1F48874298
:101EB00002D1DDF810A001E0DDF80CA0A88900F443
:101EC000004040B10AEBCA0000EB0A10316849003B
:101ED000B0FBF1F807E00AEBCA0000EB0A1031682A
:101EE0008900B0FBF1F86420B8FBF0F00401200990
:101EF000642101FB1089A88900F4004040B1322020
:101F000000EBC900B0FBF1F000F00700044308E06B
:101F1000322000EB09106421B0FBF1F000F00F005B
:101F200004432C8106B0BDE8F08700000038014072
:101F3000C1F30802828070477047000070B5054603
:101F400010480278294610480068FEF72FF9064627
:101F500006B170BD00240DE00B480068005DFF284D
:101F600006D1094800680555284602F04DFB05E0FA
:101F7000601CC4B2034800788442EDDB00BF00BFA0
:101F8000E7E700005D010020580100202DE9F04145
:101F900005460E46144627480068007A00F0010006
:101FA00048B325480068C07900F08000802801D13E
:101FB000284600E0304607461F48006801881F4851
:101FC00002883846FEF7E8FE1A480068407B40F079
:101FD000400018490968487324B117480068808890
:101FE000143805E014480068818801EBD170401076
:101FF00080B2BDE8F08110480068C07900F0800030
:10200000802801D1304600E0284607460A4800688B
:1020100001880A4802883846FEF7BEFE0CB114203B
:1020200005E005480068818801EBD170401080B25E
:10203000DFE700006401002060010020680100204B
:102040002DE9F05F80468B46914646480068C0798E
:10205000C0F3410101208840C4B2002556E0424847
:1020600000684068284441490988B0FBF1F201FB4F
:10207000120086B230193D49098890FBF1F201FB4C
:10208000120087B238193949098890FBF1F201FB37
:1020900012001FFA80FA33480068C07900F080000F
:1020A000802819D12F4909684988891B88B241467F
:1020B00002F0C2FC2B4909684988C91B88B25946FD
:1020C00002F0BAFC274909684988A1EB0A0188B2E5
:1020D000494602F0B1FC17E02249096809883144F9
:1020E00088B2414602F0A8FC1E49096809883944B3
:1020F00088B2594602F0A0FC1A490968098851447F
:1021000088B2494602F098FC681CC5B2A542A6DB1D
:1021100015480068406804EB4401084413490988E5
:10212000884207D110480068407B40F040000E49CB
:10213000096848730C4800684068401C0B490988CE
:10214000B0FBF1F201FB120007490968486005483D
:10215000006880880549098890FBF1F080B2BDE8ED
:10216000F09F000060010020640100206801002051
:102170002DE9F047074688463C48006880680921F9
:10218000B0FBF1F201FB1204082C44DA204604EB08
:10219000D0714910A4EB410109B9414600E039462C
:1021A000894632480068808885B2304800684068B7
:1021B000401C2F490988B0FBF1F201FB120086B2E6
:1021C0002C480068C07900F08000802810D129498F
:1021D00009684988491B88B2494602F02DFC254907
:1021E00009684988891B88B2494602F025FC0FE03E
:1021F000204909680988294488B2494602F01CFC34
:102200001C4909680988314488B2494602F014FC27
:102210001E20BDE8F087154800684068401C14493E
:102220000988B0FBF1F201FB12001049096848600F
:102230000E480068406878B90C490968087B00F0CE
:102240002DFB0A490968087308480068407B40F084
:1022500040000649096848730648006880880449B8
:10226000098890FBF1F080B2D3E700006401002000
:1022700068010020600100202DE9FE4F034612B9DD
:102280001846BDE8FE8FFF2A01D10846F9E71C0E6B
:10229000C3F30746C3F3072703F0FF0C0D0EC1F38A
:1022A0000748C1F3072901F0FF0A05FB02F0C2F15C
:1022B000FF0E04FB0E004FEA102B08FB02F0C2F1E8
:1022C000FF0E06FB0E00000A029009FB02F0C2F1AD
:1022D000FF0E07FB0E00000A01900AFB02F0C2F19C
:1022E000FF0E0CFB0E00000A00904FEA0B6E0298E6
:1022F0004EEA004E01984EEA002E00984EEA000089
:10230000BFE70146C1F1FF0155290ADA01EB41009F
:10231000C0F1FF00002242EA004001EB41021043FD
:102320007047AA290DDAA1F15500C1B201EB4100B5
:10233000002242EA002001EB4102C2F1FF021043F9
:10234000EEE7A1F1AA00C1B201EB4100000401EBEC
:102350004102C2F1FF0240EA0220E1E72DE9F0412B
:1023600005460F46144638480068406837490988D2
:1023700088421BD234480068466835480068C079F6
:1023800000F08000802808D1314909684988891BFC
:1023900088B2294602F050FB07E02D4909680988F8
:1023A000314488B2294602F047FB27E026480068FE
:1023B000406826490988461A25480068C07900F017
:1023C0008000802800D13CB121480068C07900F02D
:1023D0008000802809D044B11D4909684988891BBB
:1023E00088B2394602F028FB07E0194909680988D4
:1023F000314488B2394602F01FFB00BF1248006822
:102400004068401C114909884900B0FBF1F201FB0A
:1024100012000D49096848600B480068406838B9E7
:1024200009480068407B40F040000749096848734C
:1024300007480068808805490988490090FBF1F049
:1024400080B2BDE8F0810000640100206801002036
:10245000600100202DE9F04105460E461746FEF7C3
:1024600065FD804600F006FA044607FB04F206FB11
:10247000048105FB0480FDF767FEBDE8F0810000E4
:1024800010B503490968C86800F004F810BD0000E1
:10249000600100202DE9F04F8BB005464F480068E1
:1024A000C079C0F302100A904D490A9811F800A0B3
:1024B0004C490A9811F800B02C46200E0990C4F33C
:1024C00007400890C4F307200790E0B20690434805
:1024D00000680088059078E00598FEF797FC0446B0
:1024E0000A9838B94FF07F3000EA5401059802F09D
:1024F000A3FA66E0200E0490C4F307400390C4F3EF
:1025000007200290E0B2019004990998461A0399B5
:102510000898471A02990798A0EB010801990698B4
:10252000A0EB0109301E01DB014600E04142032916
:1025300001DA314604E046FA0AF146FA0BF2114498
:102540000E46381E01DB014600E04142032901DA54
:10255000394604E047FA0AF147FA0BF211440F46F4
:10256000B8F1000001DB014600E04142032901DA35
:10257000414604E048FA0AF148FA0BF21144884651
:10258000B9F1000001DB014600E04142032901DA14
:10259000494604E049FA0AF149FA0BF21144894626
:1025A00004983044C0B2009001984844C3B20298E5
:1025B0004044C2B203983844C1B2059802F05EFAB2
:1025C00000BF0598401C80B205900448006841880F
:1025D0000598814280DA0BB0BDE8F08F60010020E1
:1025E000266E00082E6E00082DE9F84F82463E4800
:1025F000006880684FEA10683B4800688068C0F354
:102600000747394800680089C0F307253648006845
:10261000067AB54201DD284600E03046B84201DACC
:10262000384604E0B54201DD284600E0304640452A
:1026300001DA40460DE0B54201DD284600E03046B3
:10264000B84201DA384604E0B54201DD284600E030
:10265000304690FBFAF000F0FF0B23480068B0F81A
:10266000009029E0584601F0C5FF0446A8EB04009D
:10267000002802DDA8EB040000E00020C0B20090BA
:10268000301B002801DD301B00E00020C3B2281BF6
:10269000002801DD281B00E00020C2B2381B002802
:1026A00001DD381B00E00020C1B2484602F0E6F927
:1026B00009F101001FFA80F90B480068408848457D
:1026C000D0DA0A480068407B40F0400007490968BA
:1026D00048730548006880880549098890FBF1F037
:1026E00080B2BDE8F88F0000600100206401002086
:1026F000680100202DE9F05F8046FFF7C1FEFEF77C
:1027000015FC0546FEF774FB04464C48006800883B
:1027100000FB04401FFA80F9484800684088604385
:102720001FFA80FA484610E02A5C031BEB5C02EBC0
:10273000A3020319EB5C02EBA301FF2901DDFF22D9
:1027400000E00A462A54411C88B25045ECDB3B4865
:102750000068C079C0F3410102208840C6B2384801
:10276000007890BB00271FE00A2001F043FFC8B9A2
:1027700034490988891B88B201F01EFF2F49096876
:10278000098808441FFA80FB324659464046FEF746
:1027900003FB2D480068407B40F040002A4909684F
:1027A000487300BF781C87B226480088142190FB2C
:1027B000F1F0012801DA012004E022480088142108
:1027C00090FBF1F0B842CFDC2DE0FFE700271AE0E4
:1027D0001C490988891B88B201F0EEFE1749096877
:1027E000098808441FFA80FB324659464046FEF7E6
:1027F000D3FA15480068407B40F040001249096850
:102800004873781C87B20F4800880A2190FBF1F0CA
:10281000012801DA012004E00A4800880A2190FB1F
:10282000F1F0B842D4DC0548006880880549098881
:1028300090FBF1F080B2BDE8F09F00006001002045
:102840004D010020680100206401002000B5002037
:1028500000F004F800BD472070470000014601EB7E
:102860008100034A126802EB800080797047000003
:102870005001002010B5FEF7BBFA10BD10B5FEF7F1
:1028800055FB10BD01480068704700006001002042
:1028900001480068704700006401002070B50246DE
:1028A000002300240025002611E001F08FFE0346DE
:1028B000D01A002801DB014600E04142CCB2C4F14D
:1028C000FF05AC4201DA204600E0284606462A2EE3
:1028D000EBDB184670BD00003EB504460D462946A8
:1028E0002046FEF729FB0020194908700A201949E3
:1028F0000870194908701749097801EB81018800AF
:1029000003F000FB154908601349087803F0FAFA50
:10291000134908601049087803F0F4FA1149086077
:1029200001F0A0FE00204FF47A716FF07F42CDE9F4
:1029300000210290601E82B200231946184602F060
:10294000CFF801F081FE1F20FEF746FB3EBD0000E0
:102950004C0100205C0100205D010020500100209E
:10296000580100205401002010B5064B1B681A695D
:10297000044B1B68D968034B1B689868FFF760FB22
:1029800010BD00006001002010B5054A1268D16832
:10299000034A126890680022FFF7F8FA10BD0000A1
:1029A0006001002010B507490968087AFFF7A9FC03
:1029B0000446054800680022C1682046FFF7E6FA91
:1029C00010BD000064010020600100202DE9F047E7
:1029D000FFF758FF0446FFF75BFF05466088218834
:1029E000401A471C297B04F1080050F821902088E8
:1029F000494602F021F82088FEF708FA82460026B0
:102A000015E0B8B201F0D8FD218800EB01081FFAEB
:102A100088F0FEF7FBF9504507D01FFA88F04946C9
:102A200002F00AF8A088BDE8F087701C86B2BE42AA
:102A3000E7DB268805E04946304601F0FDFF701CC3
:102A400086B26088B042F6DC287B401C032190FBF4
:102A5000F1F201FB12002873287B08B901F0BEFFD8
:102A6000A088E0E770B5294800684468FF2C02DDC3
:102A700040F2FF10041B0F2C02D140F2CA3518E0BF
:102A8000192C01DC262514E0322C01DC242510E071
:102A90004B2C01DC1C250CE0642C01DC142508E027
:102AA0007D2C01DC0E2504E0962C01DC0B2500E0DA
:102AB0000A25E2B2164B1B689968154B1B68D8684B
:102AC000FFF7DAFB064612480068018811480288C1
:102AD0003046FEF761F90D4800684068801C0B49DC
:102AE00009684860094800684068B0F5F97F0BD371
:102AF0000F2006490968486004480068407B40F0A0
:102B00004000024909684873284670BD64010020EE
:102B1000600100206801002010B504490968002206
:102B200088681146FFF78CFA10BD00006001002094
:102B300070B50C4800884FF4807191FBF0F0C4B27E
:102B400009480068057A08490968496801FB045189
:102B5000C8B2FFF7D6FB0646002211463046FFF703
:102B60006FFA70BD680100206401002010B50449AF
:102B700009686FF07F4288681146FFF761FA10BD5F
:102B80006001002010B50449096888686FF07F4132
:102B9000FFF7EEFA10BD00006001002010B50549F6
:102BA0000968087BFFF7ADFB04466FF07F41FFF734
:102BB000DFFA10BD6401002070B50D4800884FF4A5
:102BC000807191FBF0F0C4B20A480068057A0949A7
:102BD0000968496801FB0451C8B2FFF792FB064639
:102BE0006FF07F4211463046FFF72AFA70BD0000B1
:102BF00068010020640100202DE9F04119480068B7
:102C0000808884B2174800684068401C16490988CB
:102C1000B0FBF1F201FB120085B2200212490988D3
:102C200090FBF1F00F490968097A0844C3B21846CD
:102C3000FFF767FB064628020B49098890FBF1F075
:102C400008490968097A0844C3B21846FFF759FBD6
:102C500007463A4631466FF07F40FFF7F1F9BDE88D
:102C6000F0810000640100206801002010B50C48CC
:102C70000068406838B90A490968087BFFF70EFE0A
:102C800007490968087306490968087BFFF739FB9B
:102C900004466FF07F421146FFF7D2F910BD0000E5
:102CA0006401002010B50548006882680348006888
:102CB00081686FF07F40FFF7C3F910BD600100200D
:102CC00010B500226FF07F414FF47F0002F008F84A
:102CD00010BD000010B5114800684068104909880F
:102CE000B0FBF1F201FB120038B90C490968087B0E
:102CF000FFF7D4FD09490968087308490968087B8A
:102D0000FFF7FFFA0446012221462046FFF726FB83
:102D10004FF6FF7101EA400010BD00006401002081
:102D20006801002010B5054A1268D168034A12688C
:102D300090680022FFF712FB10BD00006001002028
:102D400010B5054A12689168034A1268D0680022DB
:102D5000FFF704FB10BD00006001002010B5114812
:102D60000068406810490988B0FBF1F201FB1200CD
:102D700038B90C490968087BFFF790FD09490968D3
:102D8000087308490968087BFFF7BBFA044600226C
:102D900021462046FFF7E2FA4FF6FF7101EA4000B4
:102DA00010BD0000640100206801002010B5054A34
:102DB0001268D168034A126890680122FFF7CEFAC0
:102DC00010BD00006001002010B5054A126891682E
:102DD000034A1268D0680122FFF7C0FA10BD000054
:102DE0006001002010B5FFF74BFB22480068C07956
:102DF00000F0800080280DD11E4A126852881E4BB8
:102E00001B689B88D21A90B21A4A1268916801F026
:102E100013FE0CE0174A12681288174B1B689B8838
:102E20001A4490B2134A1268916801F005FE1248E4
:102E300000684068401C11490988B0FBF1F201FBB1
:102E400012000D49096848600B480068406838B9AD
:102E500009480068407B40F0400007490968487312
:102E60000448006880880549098890FBF1F080B229
:102E700010BD0000600100206401002068010020F6
:102E80002DE9F041FFF7FEFC0446FFF701FD054682
:102E900060882188401A461C287B10B14FF0FF3013
:102EA00000E001208046E8894044E881FFF7E8FA25
:102EB000E8891F49B1F90010084490FBF6F106FBC0
:102EC000110007B222883A4490B2A16801F0B4FD23
:102ED0006288D21B90B2216901F0AEFD6088218822
:102EE000401AE989884202DDE889002818DC287B3D
:102EF00008B9012000E000202873E07900F080008C
:102F000050B10B48B0F90000401C90FBF6F106FBF5
:102F1000110000B206490880287B08B901F05EFD67
:102F2000A088710090FBF1F080B2BDE8F081000054
:102F30009202002010B5054A1268D168034A12684F
:102F40009068012201F01EFC10BD0000600100200D
:102F500070B51D4800684468FF2C02DD40F2FF1088
:102F6000041BE2B2194B1B689968184B1B68D868A0
:102F7000FFF782F905461548006801881448028861
:102F80002846FDF709FF104800684068001D0E49FB
:102F9000096848600C4800684068B0F5007F0BD3B2
:102FA000002009490968486007480068407B40F0F4
:102FB0004000054909684873044800688188C817BB
:102FC00001EB5060C01170BD640100206001002061
:102FD000680100202DE9F047FFF754FC0546FFF794
:102FE00057FC044668882988401A461CE8794FEA4D
:102FF000D018D5F80890D5F80CA0207B18B1D5F8DA
:103000000C90D5F808A05046FFF744FAB8F1000F2D
:1030100007D06988A288891A88B2494601F00CFD58
:1030200006E02988A288114488B2494601F004FDCF
:103030006068401CB0FBF6F106FB11006060E0899F
:10304000301A401E6168814208D3E189E879C0F3F3
:103050004100401C0844E08100206060002711E02E
:10306000B8F1000F06D02988394488B2494601F0EA
:10307000E3FC05E06988C91B88B2494601F0DCFC25
:10308000781CC7B2E089B842EADCE089B04209DBCB
:10309000207B08B9012000E0002020730020E0819F
:1030A00001F09CFCA88890FBF6F080B2BDE8F087A8
:1030B00010B50320FFF798FA10BD10B50120FFF7F7
:1030C00093FA10BD10B50620FFF78EFA10BD000070
:1030D00010B5002400BF032001F08CFA05490968EF
:1030E000083151F82040002CF5D02046FFF702FBB4
:1030F00010BD00006001002010B501F067FA034622
:10310000FFF7FFF80446FFF7F5FA10BD10B50449C4
:10311000096888686FF07F4101F07AFD10BD0000FA
:103120006001002010B50249024801F0BDFA10BD4F
:103130000030FF00800040002DE9F84FFFF7A2FBB0
:10314000044660882188401A471CE079C0F3410199
:103150000220884000F0FF08FFF78CFB00FB08F519
:10316000FFF788FBBA4607EBDA714910484386B28D
:10317000701B80B20090FFF781FB00EB050AFFF7A0
:103180007DFB83465146009AFCF7DEFFFFF776FB96
:1031900000EB060AFFF772FB304400EB050B5146CB
:1031A0005846009AFCF7D0FFFFF76AF9FEF77AFA63
:1031B00013490968A0EB0109B9F5C87F09D911487D
:1031C000007830B94146204602F08FFB01200D49BE
:1031D0000870B9F5966F0CD94146204602F085FB80
:1031E000002008490870FEF75DFA0549086001F003
:1031F000F5FBA188C81701EBD0604011BDE8F88F3E
:10320000A4020020A802002070B51C4A1268118890
:103210001A4A126890681A4A1288FDF7BDFD1748CD
:103220000068C079C0F3410101208840C4B2002584
:1032300012E013490988091B88B201F0BDF90F4952
:1032400009680988084486B2224631466FF07F40FB
:10325000FDF7A2FD681CC5B2082DEADB094800682D
:10326000407B40F040000749096848730348006804
:103270008188C81701EBD060401170BD600100204B
:1032800068010020640100202DE9F041FFF7FAFAFF
:103290000446FFF7FDFA054660882188401A461C5F
:1032A000A88887B222883A4490B2A16801F0C4FB92
:1032B000B04606EBD87223883B4403EB620290B21F
:1032C000A16801F0B9FBE889B84228D1062001F0D5
:1032D00091F990B92188394488B2002101F0ACFB02
:1032E00006EBD87122883A4402EB610188B20021D2
:1032F00001F0A2FBC820BDE8F081B04606EBD87112
:10330000C1F34F0001F058F9E88101F067FB4FF479
:10331000FA6001F051F900F57A7080B2EBE721888C
:10332000394488B2002101F087FBB04606EBD87122
:1033300022883A4402EB610188B2002101F07CFB53
:10334000E8896968884205D96868401C6860781C0B
:1033500087B208E0E8896968884204D26868401E3C
:103360006860781E87B222883A4490B2A16801F062
:1033700063FBB04606EBD87223883B4403EB620242
:1033800090B2A16801F058FBA08890FBF6F080B2E3
:10339000B1E7000010B5FFF773F83C4800684068DB
:1033A0003B490988884222D23A480068C07900F037
:1033B000800080280DD1374A12685288334B1B6831
:1033C0009B88D21A90B2334A1268916801F034FB9C
:1033D00033E0304A126812882C4B1B689B881A44D1
:1033E00090B22C4A1268916801F026FB25E027482C
:1033F0000068818826480088C1EB4000801E84B2A6
:1034000024480068C07900F0800080280AD1214A51
:10341000126891681F4A12685288121B90B201F01C
:103420000BFB09E01B4A126891681A4A126812885D
:10343000224490B201F000FB00BF144800684068CD
:10344000401C1249096848601048006841681048EB
:1034500000880222C2EB400080B281420BD30020E0
:103460000A490968486009480068407B40F040000C
:103470000649096848730748006880880449098834
:10348000490090FBF1F080B210BD00006401002003
:1034900068010020600100202DE9F05FFFF7F2F9DC
:1034A0000546FFF7F5F9044668882988401A00F1B7
:1034B000010B2E88207B2149497848431F49897890
:1034C000484300F0FF0900271FE01C4890F9020064
:1034D00007FB00901FFA80FA4FF000080FE06888A1
:1034E000B0420ADB154840680AEB080250F8221087
:1034F000304601F0A1FA701C86B208F101080F48AD
:1035000090F902004045EADC7F1C0C4890F901006C
:10351000B842DADC217B094890F90000401E814264
:1035200003DA207B401C207301E000202073207B05
:1035300008B901F053FAA888BDE8F09F880200207E
:1035400010B54FF47F41080201F0AEF810BD000045
:103550002DE9F041FFF796F9054668882988401A59
:10356000461CE8794FEAD018FEF78AFF002443E0B2
:10357000274830F91400B04232DAB8F1000F13D006
:10358000274604EBD7725210A4EB42020AB1AA6894
:1035900000E02A6911466A881D4B33F81430D21AAC
:1035A00090B201F049FA12E0274604EBD7725210AC
:1035B000A4EB42020AB1AA6800E02A6911462A88EF
:1035C000134B33F814301A4490B201F035FA104816
:1035D00030F81400401C00B20D4921F8140009E035
:1035E000B0B200F0E9FF28B90020094921F8140021
:1035F00001F0F4F9601CC4B2064890F9000084425E
:10360000B6DBA88890FBF6F080B2BDE8F081000040
:1036100094020020A002002070B5104800680488C1
:103620000BE000F0D3FF0346FEF76BFE054629468C
:10363000204601F001FA601C84B208480068408806
:10364000A042EEDA06480068407B40F040000449A2
:103650000968487301480068808870BD60010020D7
:103660006401002070B52B4A12681188294A12683B
:10367000D068294A1288FDF78FFB264800688088A9
:103680000A2190FBF1F201FB1200C0F1090000EBEE
:10369000C00101EB0010C82101EB800085B21D487C
:1036A00000688088642190FBF1F0401C4004040C09
:1036B0001A4800684068A04212D218480068007991
:1036C00000F0010058B9134A12681188114A1268B3
:1036D0009068114A1288FDF75FFB142500E032253F
:1036E0000E4800684068401C611CB0FBF1F201FB11
:1036F00012000A490968486008480068406838B9FB
:1037000006480068407B40F040000449096848735F
:10371000284670BD6001002068010020640100207F
:103720002DE9F041FFF7AEF8064670883188401A5F
:10373000441C2046E11704EB9171891009B2774AC5
:103740001180E11704EB5171C91049B29170012049
:103750001146C87008712046E11704EB9171891079
:10376000490009B2D180E11704EB5171C9104AB286
:103770006A490A72FF21694841720121817220461B
:10378000E11704EB9171891001EB410109B2634A21
:103790009181E11704EB5171C9104AB25F498A73F4
:1037A00001215E48C1730221017400256BE005EB25
:1037B00045005A4931F9100005EB4501574A02EB23
:1037C000410191F9031005EB4502544B03EB420212
:1037D00092F9042001FB020000B205EB45011A46F4
:1037E00022F8110005EB4500114601EB400090F96D
:1037F0000300401CE8B905EB450031F91000002832
:1038000017DC002005EB450122F81100012005EB33
:10381000450102EB4101C870032000F0EBFE401CA3
:1038200040B205EB45013D4A02EB4101087101F050
:10383000D5F805EB4500394901EB4000C078012877
:103840001FD105EB450031F91010601E814218DBD5
:1038500000B205EB4501314A22F81100FF2005EBCB
:10386000450102EB4101C870032000F0C3FE401C7B
:1038700040B205EB4501294A02EB4101087101F014
:10388000ADF8681C45B2032D91D300273DE04FF001
:10389000000800252FE005EB4500204931F9100014
:1038A00005EB45011D4A02EB410191F90210401A56
:1038B000B8421EDC05EB4500114631F9100005EB5E
:1038C000450102EB410191F902100844B84210DBB6
:1038D000B8F1000F04D106F1080050F8250007E008
:1038E00006F1080050F8251080224046FEF7C4FC7F
:1038F0008046681C45B2032DCDD33188394488B247
:10390000414601F099F8781C07B2A742BFDBB188A5
:10391000C81701EB5070C010BDE8F081F002002024
:103920002DE9F04F85B0FEF7ADFF04466088218891
:10393000401A401C1FFA80F9D4F808A0D4F80CB043
:10394000DA4505D100F042FE0346FEF7DAFC824676
:10395000E079C509002168480068FCF7D3FE14D15E
:103960004846FCF786FE0290FCF79CFE07464FF0A7
:10397000C042624B02F0FCFA0390FCF771FE604912
:103980000490FCF775FC5C490860278805E05946FF
:10399000384601F051F8781C87B26088B842F6DAF0
:1039A00000279FE007EB4701564A52F8210000210B
:1039B000FCF7B2FE01D8012000E00020049004983A
:1039C000002855D007EB47024E4B03EB82025168AB
:1039D00007EB470253F82200FCF7F2FB07EB470125
:1039E000484A42F8210007EB470102EB8101486891
:1039F000FCF758FE444A454BCDE90001FCF749FD70
:103A0000CDE90201FCF761FE07EB47013D4A02EBFD
:103A10008101486065B16088FCF72BFE039007EBDD
:103A20004700384A52F820100398FCF71BFC0BE0C3
:103A30002088FCF71EFE039007EB4700314A52F83E
:103A400020100398FCF7BCFB8046FCF717FE86B2FB
:103A50002088B04244DC6088B04241DB07EB47007D
:103A6000284A02EB80008168304600F0E5FF37E02D
:103A700000F0ACFD022833DA002007EB4701214AB1
:103A800042F821006421422002F036F90290FCF74E
:103A9000F0FD1F490390FCF71DFC804616480168A5
:103AA0004046FCF7E5FB07EB4701164A02EB8101B4
:103AB000486007EB4700114601EB8000C0F808A002
:103AC0000DB1608800E02088064607EB47000D4AEC
:103AD00002EB80008168304600F0AEFF00F07EFF10
:103AE000781C47B20A2FFFF65DAFA08890FBF9F073
:103AF00080B205B0BDE8F08FAC020020F2B6E03F26
:103B0000ADF2C93E040300209A9999999999B93F59
:103B10000000C8422DE9F041FEF7B4FE044660887B
:103B20002188401A401C85B200F050FD00F00100D1
:103B300008B9A06800E020690746D4E90210814274
:103B400005D100F043FD0346FEF7DBFB0746384690
:103B5000FEF7D0FDE079C6093EB1AB1E9AB22188CE
:103B60008B1C98B2FEF776FC07E0AB1E9AB2238856
:103B70009B1C99B22088FEF76DFCA08890FBF5F0A5
:103B800080B2BDE8F081000010B5154909680879D8
:103B9000FEF7B7FB04461348006801881248028804
:103BA0002046FDF7F9F80E4800680079401CC0B2C5
:103BB0000B49096848600A480068406838B90848F5
:103BC0000068407B40F0400005490968487305489B
:103BD00000688188C81701EB1060001210BD00005A
:103BE0006401002060010020680100202DE9F041FF
:103BF000FEF748FE054668882988401A401C87B2AF
:103C0000FF2000F0C3FEFEF73BFC2888801D84B235
:103C100055E02046FDF7FAF80646B6F5FE0F09D145
:103C2000611E88B23D4900F007FF611C88B23B4924
:103C300000F002FFB6F57C1F09D1A11E88B23849F9
:103C400000F0FAFEA11C88B2354900F0F5FEB6F589
:103C5000F81F0BD1E11E88B24FF47F4100F0ECFE5B
:103C6000E11C88B24FF47F4100F0E6FEB6F5702FFC
:103C700009D1211F88B2FF2100F0DEFE211D88B28C
:103C8000FF2100F0D9FEB6F5E02F09D1611F88B2FF
:103C9000244900F0D1FE611D88B2224900F0CCFE1B
:103CA000B6F5403F09D1A11F88B21F4900F0C4FEFC
:103CB000A11D88B21C4900F0BFFE601C84B2688858
:103CC000801FA042A5DA002416E00A2000F092FC32
:103CD00080B9A7F10C0188B200F06EFC2988891D1B
:103CE000084486B24FF47F01304600F0A5FE00F094
:103CF00075FE00BF601C84B2142097FBF0F0012811
:103D000001DA012002E0142097FBF0F0A042DCDC95
:103D1000A88890FBF7F080B2BDE8F081007FFF003B
:103D200000FFFF0082004B00D30094002DE9F05FFC
:103D3000FEF7A8FD0546FEF7ABFD04466888298816
:103D4000401A00F10108607B00F0010010B14FF053
:103D5000FF3000E001208246E0895044E081E089A4
:103D600090FBF8F108FB110006B2FEF789FBE87939
:103D7000B0B9217B481C20734FB2B946F91707EB45
:103D80005171C910A7EBC1014907080EFEF7B9FA36
:103D900083462988314488B2594600F04DFE0DE033
:103DA000300290FBF8F0C3B21846FEF7AAFA0746B5
:103DB0002988314488B2394600F03EFE6888298857
:103DC000401AE189884202DDE089002805DC607B39
:103DD00080F00100607300F001FEA8884FEA4801FE
:103DE00090FBF1F080B2BDE8F09F000070B50024B8
:103DF00017E020021B49098890FBF1F01A49096875
:103E000009790844C3B21846FEF77BFA05461749FC
:103E100009680988214488B2294600F00DFE601C1B
:103E200084B2104800888442E3DB0F4800680079C0
:103E3000401CC0B20C49096848600B4800684068E3
:103E400038B909480068407B40F0400006490968DD
:103E50004873064800688188C81701EB106000129B
:103E600070BD000068010020640100206001002096
:103E70002DE9F047FEF706FD0446FEF709FD07466B
:103E800060882188401A461C731E9AB221884B1CF8
:103E900098B2FEF7DFFA2188491C88B2FCF7B6FF1A
:103EA00005460621002001F027FF10B1C5F30740A9
:103EB00003E00021084601F01FFF80460621002094
:103EC00001F01AFF10B1C5F3072003E000210846F6
:103ED00001F012FF81460621002001F00DFF08B11C
:103EE000E8B203E00021084601F006FF82460AF02E
:103EF000FF0309F0FF0208F0FF01208800F0B0FD89
:103F0000B868B0FBF6F106FB110008B900F066FDD9
:103F1000A088BDE8F087000010B511490968087B4A
:103F2000FEF7BCFC0E49096808730D490968087B57
:103F3000FEF7E7F904460B48006801880A48028842
:103F40002046FCF729FF06480068407B40F040000F
:103F500003490968487303480068808810BD000061
:103F600064010020600100206801002010B5044AAF
:103F70001268D168024A1268906800F095FB10BD83
:103F8000600100202DE9F04135480068C079C0F398
:103F9000410101208840C5B2324800884FF4807149
:103FA00091FBF0F06843012801DA012006E02D487A
:103FB00000884FF4807191FBF0F06843C6B2002492
:103FC0002CE029490968097921447143C8B2FDF7F9
:103FD0001BF907463A46224B1B68D968204B1B68E1
:103FE0009868FEF749F980461D480068C07900F0DE
:103FF0008000802808D11A4909680988214488B2BC
:10400000414600F019FD07E0154909684988091B78
:1040100088B2414600F010FD601C84B2114800884F
:104020008442CEDB104800680079401CC0B20E49C3
:10403000096848600C480068406838B90A48006858
:10404000407B40F040000849096848730448006814
:1040500080880449098890FBF1F080B2BDE8F081C6
:1040600060010020680100206401002070B5114843
:104070000068C079C0F3410102208840C4B20E48F4
:1040800000684068B0FBF4F104FB110038B90A493C
:104090000968087BFEF702FC0749096808730649AE
:1040A0000968087BFEF72DF905462946284600F0E9
:1040B000FBFA70BD600100206401002010B5FF21F3
:1040C000080400F0F1FA10BD10B5054A1268D16875
:1040D000034A12689068002200F054FB10BD0000F3
:1040E0006001002070B51C4800688068A0B91B48BA
:1040F000006804880BE000F069FA0346FEF701F956
:1041000005462946204600F097FC601C84B21348FF
:1041100000684088A042EEDA00F058FA0346FEF745
:10412000F0F804460E48008800F046FA0B4909688A
:104130000988084485B22146284600F07DFC0648DF
:104140000068407B40F04000034909684873034819
:104150000068808870BD00006401002060010020BC
:104160006801002010B5044A12689168024A12687A
:10417000D06800F04DFD10BD6001002010B50B4A65
:1041800012681188094A12689068094A1288FCF777
:1041900003FE08480068407B40F04000054909687C
:1041A000487302480068808810BD0000600100204C
:1041B000680100206401002010B5054A1268D1682A
:1041C000034A126890680122FDF7E0FE10BD00006E
:1041D0006001002010B507490968087AFEF791F8D8
:1041E0000446054800680122C1682046FDF7CEFE5E
:1041F00010BD0000640100206001002010B5064BD6
:104200001B68DA68044B1B68D968034B1B68986805
:1042100000F066FD10BD00006001002010B50C48E4
:1042200000680079401CC0B2094909684860084923
:1042300009680879FEF765F8044606480068C26810
:1042400004480068C168204600F04AFD10BD000027
:1042500064010020600100202DE9F84FFEF712FBF9
:104260000446FEF715FB074694F807904FEAD91568
:10427000FE894FF0000AD346B6F5C06F06DA0DB1DD
:10428000002000E020698246D4F808B0B6F5A06F9F
:1042900009DA0DB1206900E0E06882460DB1002026
:1042A00000E020698346B6F5806F09DA0DB1002081
:1042B00000E0A06882460DB1206900E0E068834616
:1042C000B6F5407F09DA0DB1E06800E0206982466A
:1042D0000DB1002000E0A0688346B6F5007F09DA42
:1042E0000DB1002000E0E06882460DB1E06800E01A
:1042F00020698346FF2E06DCD4F808A00DB100200B
:1043000000E0E0688346B046F01706EB106000124C
:10431000A6EB0020C2B259465046FDF7ADFF009013
:10432000B4F8008007E04046009900F085FB08F1F2
:1043300001001FFA80F860884045F4DAF889001D12
:10434000F881F889B0F5C06F03DB0020F88100F038
:1043500045FBA188C81701EB5060C011BDE8F88F7C
:1043600010B5064B1B681A69044B1B68D968034BD0
:104370001B68986800F0B4FC10BD000060010020CC
:1043800010B5044A1268D168024A1268906800F0B9
:104390001DFD10BD600100202DE9F04F87B0002504
:1043A000FEF770FA0446FEF773FA0690E079C0F360
:1043B00041010120884000F0FF09D4F808A0E0681E
:1043C0000590D4F810B0268859E005EB850000EB85
:1043D000C52043F21961451805EB252000F0FF08C0
:1043E00005EB850000EBC520084485B205EB2520D0
:1043F00000F00700401C4000039006988168039875
:1044000001FB0080C0B202900298FCF7FDFE019013
:10441000BAF1000F0AD108F0FF00FDF772FF07465E
:10442000019A0599FDF728FF049016E0BBF1000FF3
:104430000DD0B8F1800F01DA012000E0002030B982
:104440005846019A0599FDF717FF049005E050467C
:10445000019A0599FDF710FF049000270AE0F01972
:104460006188884204DCF11988B2049900F0E4FA0A
:10447000781CC7B24F45F2DB06EB090086B26088B4
:10448000B042A2DA00F0AAFAA188C81701EBD06006
:10449000401107B0BDE8F08F10B50349096888687E
:1044A00000F0E0FC10BD00006001002010B500F03D
:1044B0008DF80346FDF725FF044600F0D3FC10BD40
:1044C00010B500F083F80346FDF71BFF04460348D0
:1044D0000068C168204600F079FC10BD6001002032
:1044E0002DE9F05FFEF7CEF9044660882188401A76
:1044F000401C1FFA80F8404608EBD0714F10002591
:1045000046E0202000F076F82549495D4618202035
:1045100000F070F8A6EB0009B9F1000F02DBB9F169
:10452000FF0F01DD802000E048461D494855495DE8
:1045300001FB07F0C11700EB1161C1F3072A002648
:1045400022E0208805FB070030441FFA80FB564517
:1045500014DC381FB04204DD5846A16800F06CFA44
:1045600010E0B81EB04204DD5846E16800F064FA7D
:1045700008E05846216900F05FFA03E00021584640
:1045800000F05AFA701C86B2BE42DADB681CC5B273
:10459000022DB6DB00F022FAA088BDE8F09F0000F3
:1045A0009002002000B500F011F8024600F00EF86D
:1045B00002EB002080B200BD10B50346FFF7F2FF0A
:1045C000044604FB03F0040C204610BD0848008894
:1045D00000EB800101EBC02043F21961084404495B
:1045E00008800846008800EB2020C0B27047000019
:1045F0004401002000B50246FFF7E8FF034603FB35
:1046000002F00312184600BD70B504460B4802784C
:1046100021460B480068FBF7C9FD054605B970BD8A
:1046200007480068281A0749096801EB00100021B3
:10463000016041608160C16000BFF0E75D01002062
:10464000580100205401002010B5044800780101F1
:1046500003480068FBF79FFD10BD00005D010020CE
:104660005401002010B5FFF7EFFF0A48007800EB77
:104670008000810008480068FBF78DFDFF22074895
:10468000017807480068FBF77FFD002005490870A6
:1046900010BD00005C010020500100205D010020E1
:1046A000580100205E0100202DE9F04104460D462E
:1046B00031480068C079C0F3410102208840C6B289
:1046C0002E4800684068304008B1204600E0284687
:1046D000074629480068C07900F08000802814D17E
:1046E000274B1B885B1E9AB2234B1B681B885B1CE5
:1046F00099B2214B1B681888FDF7ACFE1E4909686A
:104700004888394600F098F913E01D4B1B885B1E62
:104710009AB2194B1B681988174B1B681B885B1CC6
:1047200098B2FDF797FE144909680888394600F0E9
:1047300083F9124800684068401C11490988B0FBA1
:10474000F1F201FB12000D49096848600B4800684E
:10475000406838B909480068407B40F0400007498C
:10476000096848730448006880880549098890FBF7
:10477000F1F080B2BDE8F08160010020640100200A
:10478000680100202DE9F0470746884615463B485A
:104790000068007B10B14FF0FF3000E0012081463F
:1047A00037480068C079C0F3410101208840C6B293
:1047B000334800680188334802884046FCF7ECFA29
:1047C000002429E02E480068C07900F0800080288D
:1047D00000D05DB12A4909684988284A1268928840
:1047E000891A091B88B2394600F026F92448006866
:1047F000C07900F08000802800D15DB120490968AF
:1048000009881E4A126892881144214488B23946A8
:1048100000F012F9601CC4B2B442D3DB1748006840
:104820004068484415490968486014480068406871
:1048300058B9002011490968087310480068407B86
:1048400040F040000D49096848730C480068406812
:104850000C490988891B89B2884203D30120074982
:104860000968087306480068808806490988490075
:1048700090FBF1F080B2BDE8F087000064010020F9
:1048800060010020680100202DE9F04135480078E2
:1048900018B935480078002862D0FCF703FF0546B8
:1048A0000026002451E031480068005DFF284AD00E
:1048B0002E480068005D00EB80002D49096801EB7F
:1048C00080002C490860084600684088096809880B
:1048D000401A401C284908802848006800EB041052
:1048E0002749086008460068407B20F0C00009683E
:1048F0004873234800680068A84202D31A48007829
:1049000008B31F480068407B40F080001C490968DC
:10491000487301261749096889791A4A52F8210013
:10492000804707460A2F01DD384600E00A20284468
:10493000134909680860124800688068401C1049E3
:104940000968886000BF601CC4B20F4800788442C8
:10495000A9DB0EB100F04EF900200349087000BF3A
:10496000BDE8F0814C0100204D01002058010020DD
:104970005001002060010020680100205401002047
:10498000640100206C0100205D01002010B5044688
:10499000002C01DC002004E0FF2C01DBFF2000E004
:1049A000204604462046FCF717FB00F023F910BD13
:1049B00030B5024600200CE051F8204002EB8203A3
:1049C000054D2D6805EB8303083343F82040431C55
:1049D000D8B20328F0DB30BD500100200448006845
:1049E000407B40F04000024909684873704700006E
:1049F0006401002010B504462146002000F002F8B2
:104A000010BD000070B505460C462846FFF7FCFDBA
:104A1000002C01DC002004E0462C01DB462000E0F5
:104A2000204605EB8501034A126802EB810188717B
:104A300070BD0000500100202DE9F84305460C46EA
:104A4000260EC4F30747C4F3072804F0FF094B46BA
:104A5000424639462846009600F010F8BDE8F88333
:104A6000F8B504460D4616461F4600203B46324622
:104A700029460090204600F001F8F8BD2DE9FC5FC2
:104A800080460C4615461E460C9F14480068C079A7
:104A900000F00800082817D13846FCF7A3F9814632
:104AA0003046FCF79FF982462846FCF79BF983467F
:104AB0002046FCF797F953465A460146CDE9009047
:104AC0004046FCF715FB06E033462A4621464046A1
:104AD0000097FCF70DFBBDE8FC9F00006001002083
:104AE0002DE9F04786B004460D4616461F46DDE91F
:104AF0000F9ADDF838800020039004900590CDF8DF
:104B00000C8003A83B46324629468DE80106204624
:104B100000F004F806B0BDE8F08700002DE9F0478A
:104B200004460D4616461F46DDE9099ADDF8208049
:104B30001D480078844235DA601C1C490978884297
:104B400001DD1A49087004EB84001949096821F84D
:104B5000205004EB84001649096801EB8000468070
:104B600004EB84001249096801EB8000877104EBB3
:104B700084000F49096801EB8000A0F8049004EB61
:104B800084000B49096801EB800080F807A04146CA
:104B90002046FFF70DFF07480078844202DA2046DE
:104BA000FDF7CCF9BDE8F0875C0100205E01002034
:104BB000500100205D01002010B504462146002070
:104BC00000F002F810BD000010B50A2901DC0A222D
:104BD00005E04FF6FF72914200DB00E00A4600EB71
:104BE0008003034C246804EB83039A8010BD00000B
:104BF0005001002010B50548006810B9FCF7BEFA56
:104C000002E002480068804710BD00004801002013
:104C100070B506460D4622480068406838B92148FC
:104C200000680188204802883046FCF7B5F81D4826
:104C30000068C079C0F3410101208840C4B219481E
:104C400000680088164A1268D289104481B2224650
:104C50003046FCF7A1F814490988091B88B2FFF710
:104C6000ABFC0F490968C8810E48006800880C4AEF
:104C70001268D289104481B222462846FCF78CF88B
:104C800007480068407B40F04000054909684873C8
:104C9000044800688188C81701EBD060401170BDDE
:104CA00064010020600100206801002010B5FFF7BA
:104CB000CBFC01200149087010BD00004C01002010
:104CC00010B500200249087000F004F810BD000083
:104CD0004C01002010B5FCF753F8FFF78BFF10BD17
:104CE0002DE9F84F07468846914635480068C07957
:104CF000C0F3410101208840C6B270064FEA106A35
:104D00000AEB060000F0FF0B2E4800684068B0FB7D
:104D1000FBF10BFB110084B200252AE094FBFBF0B1
:104D20000BFB104084B2CDF80090B44201DA00973A
:104D300003E0544501DACDF8008021480068C079CD
:104D400000F08000802808D11D490968098829449D
:104D500088B20099FFF770FE07E019490968498891
:104D6000491B88B20099FFF767FE681C85B2601C7A
:104D700084B2154800888542D0DB1248006840683C
:104D8000401C1049096848600E48006840680E4998
:104D90000988B0FBF1F201FB120038B9094800683C
:104DA000407B40F0400007490968487304480068A8
:104DB00080880549098890FBF1F080B2BDE8F88F42
:104DC00060010020640100206801002070B50446E5
:104DD0000D4621480068406800BB204800680188F3
:104DE0001F4802882846FBF7D7FF1D490888C117CE
:104DF00000EB917189104E1C4FF6FF7101EA4600DD
:104E0000FFF7DAFB14490968486013480068407BE3
:104E100040F0400010490968487300BF10480088FE
:104E2000FFF7CAFB0D4909680988084486B2214684
:104E30003046FFF701FE084800684068401E0649FA
:104E4000096848600548006880880549098890FB22
:104E5000F1F080B270BD000064010020600100200C
:104E60006801002070B50546FDF70AFB0320FFF737
:104E7000C1FB00BB14480068C079C0F341010120A8
:104E80008840C4B211490988091B88B2FFF794FB16
:104E90000D4909680988084486B2224631462846E9
:104EA000FBF77AFF0A480068407B40F04000084961
:104EB0000968487300BF044800688188C81701EB7F
:104EC0005070C01070BD000060010020680100201B
:104ED00064010020704700000FB4054B10B503A912
:104EE000044A029800F06AF910BC5DF814FB000057
:104EF0001D5D0008B4020020490050EAC12018BF1F
:104F000004204A0D18BF40F0010040F2FF72B2EBDE
:104F1000515F08BF40F00200012808BF052070471C
:104F20002DE9F0414F1E00EBC7010446D1E9000115
:104F300015461E4637F006020DD02A463346FBF7CB
:104F4000AEFA7F1E04EBC703D3E90023FBF700FA98
:104F500037F00602F1D1022F25D0042F13D0062FEF
:104F600018BFBDE8F0812A463346FBF798FAD4E92A
:104F70000A23FBF7EDF92A463346FBF790FAD4E90A
:104F80000823FBF7E5F92A463346FBF788FAD4E90C
:104F90000623FBF7DDF92A463346FBF780FAD4E90E
:104FA0000423FBF7D5F92A463346FBF778FAD4E910
:104FB0000223FBF7CDF92A463346FBF770FAD4E912
:104FC0000023BDE8F041FBF7C3B9000000221346FF
:104FD00010460149FBF7D5BA0000F03FFBF7B8B91E
:104FE0000022134610461146FBF7CBBA40F20132BD
:104FF00000204FF0E041FBF795BC0000024A002082
:105000001107FBF78FBC000001FDFFFF02E008C89D
:10501000121F08C1002AFAD170477047002001E032
:1050200001C1121F002AFBD170470000014908602E
:1050300070470000C00200202DE9FF5F82B0002110
:10504000DDE90430020DDDF840B0034318D044F62A
:105050001050A2F2FF3242431514119801281FD0BC
:10506000A5EB0B00401C5FEA000A4FF000064E4F14
:10507000DFF83891B046504615D5CAF1000413E068
:10508000119801244AA3012801D16FEA0B0102986B
:10509000119AC0E90031C0E9024206B0BDE8F09FB4
:1050A000CBF10000DFE704460021404A491842EBFB
:1050B0000450CDE9001012E0E00707D032463B462D
:1050C00040464946FBF7EBF98046894632463B4667
:1050D00010461946FBF7E3F906460F466410002C0C
:1050E000EAD1DDE90401DDE90023BAF1000F06DAB7
:1050F000FBF7D5F942464B46FBF7D1F905E0FBF744
:1051000040FA42464B46FBF73CFA04460E46002264
:10511000284BFBF747FC03D84FF0FF30014607E070
:105120000022254B20463146FBF712F9FBF722FC03
:10513000102409E0002C0ADB0A220023FBF70CFBF9
:10514000039B30321A55641E50EA0102F2D1641CEE
:10515000039AC4F111031444119A012A03D00122C5
:1051600008430DD10AE0084304D000204FF0110B92
:10517000119072E7A3EB0B056D1E0DE05B4504DD9E
:105180004FF0000205F1010504E003DA4FF00002E0
:10519000A5F10105002AECD002981199C0E902316D
:1051A000C0E9004579E70000000014400000F03F2E
:1051B000300000000000F0430000E03F2DE9FF4F09
:1051C00095B09B468946064600250FE2252877D1F3
:1051D00000242746F84A0121059400E0044316F80C
:1051E000013F203B01FA03F01042F7D130782A2822
:1051F00011D06FF02F033078A0F13002092A16D8B1
:10520000059A44F0020402EB820203EB42021044CE
:10521000761C0590EFE759F8042B0592002A03DA73
:10522000504244F40054059044F00204761C307857
:105230002E2816D116F8010F44F004042A280DD0A8
:105240006FF02F023078A0F13003092B09D807EB5B
:10525000870302EB4303C718761CF3E759F8047B76
:10526000761C30786C280FD006DC4C2817D06828C4
:105270000DD06A2814D104E0742810D07A280FD1F8
:105280000DE044F400140AE044F4801401E044F416
:1052900040147278824202D104F58014761C761C88
:1052A000307866280BD013DC582877D009DC00282A
:1052B00075D04528F6D04628F4D047281AD19DE16C
:1052C00018E0632835D0642879D0652812D195E19B
:1052D000702873D008DC6728F1D069286FD06E2859
:1052E0000DD06F2806D1B5E073282CD0752875D065
:1052F000782874D05A46179990476D1C75E1C4F30D
:105300000250022809D003280DD0D9F80010042833
:105310000DD00D6009F1040967E1D9F80010EA1712
:10532000C1E90052F6E7D9F800100D80F2E70D70E0
:10533000F0E719F8041B8DF8001000208DF801002B
:10534000EA46012003E059F804AB4FF0FF30610753
:105350004FF0000102D40DE008F101018846B94286
:105360000FDA8045F8DB1AF808100029F4D108E0BC
:1053700008F1010188468142FADB1AF80810002979
:10538000F6D105985B46A0EB080721463846179AE8
:1053900000F094FA284400EB080507E04DE029E10D
:1053A0000DE01AF8010B5A4617999047B8F1010819
:1053B000F7D25B4621463846179A13E142E00A22AB
:1053C0000092C4F302524FF0000A022A08D059F8A2
:1053D00004CB032A4FEAEC710AD00DE029E02AE061
:1053E00009F1070121F00702F2E802C1914609E044
:1053F0000FFA8CFC4FEAEC71042A03D14FFA8CFCB3
:105400004FEAEC71002907DA0A460021DCF1000CB2
:1054100061EB02012D2202E0220504D52B228DF83A
:105420000420012203E0E20701D02022F7E79046A2
:1054300059E00A2102E010220DE010214FF0000A8D
:1054400000910BE010224FF0000A44F004040827FA
:10545000009203E008224FF0000A0092C4F30252C7
:10546000022A05D059F804CB0021032A08D009E00C
:1054700009F1070121F00702F2E802C1914605E0B7
:105480001FFA8CFC042A01D10CF0FF0C4FF000082D
:10549000220728D5702806D0009B83F0100353EA1A
:1054A0000A0305D00EE040228DF80420012208E016
:1054B0005CEA010206D030228DF804208DF8050048
:1054C00002229046009B83F0080353EA0A030AD1A4
:1054D0005CEA010201D1620705D530228DF8042073
:1054E0004FF001087F1E582804D034A003900EA866
:1054F00002900DE036A0F9E753466046009AFBF7AC
:105500002BF984460398825C0298401E0290027038
:105510005CEA0100F0D1029806A9081A00F1200AFD
:10552000600702D524F4803400E00127574502DDEE
:10553000A7EB0A0000E0002000EB0A0100900598AC
:105540004144401A0590E00306D45B462146179A71
:10555000059800F0B3F90544002706E001A85A4673
:10556000C05D179990476D1C7F1C4745F6DBE00333
:105570000CD55B462146179A059800F09FF9054423
:1055800004E030205A46179990476D1C0099481E38
:1055900000900029F5DC08E0029802995A4600784C
:1055A000491C0291179990476D1CBAF10001AAF1AC
:1055B000010AF1DC65E100000928010030313233D5
:1055C000343536373839616263646566000000003F
:1055D0003031323334353637383941424344454629
:1055E0000000000000F058F90544761C30780028CF
:1055F0007FF4ECAD19B02846BDE8F08F620700D407
:10560000062709F1070222F0070CFCE80223E14615
:1056100003F000485FEA080C02D00FF2702C0DE096
:105620005FEA045C02D50FF2682C07E05FEAC47CF5
:1056300002D00FF2602C01E0AFF2700C4FF0FF3897
:1056400023F00043CDF850C065280CD006DC452877
:1056500009D046281DD047283DD13DE0662818D006
:1056600067287ED138E00021112F01DB112000E0F6
:10567000781CCDE9000106A90EA8FFF7DDFCDDE9E5
:105680000F010E9A03910021009207F1010A049183
:105690004DE04FF000400097CDE9011006A90EA89B
:1056A000FFF7CAFCDDE90F0203920E9B119900225D
:1056B000DDF80CA00093049211B9791C00EB010AEB
:1056C000B7EB0A0004D4C0F1FF3007F1010A0490DF
:1056D000AAEB0700019044E0012F00DA0127002126
:1056E000112F01DD112000E03846CDE9000106A9A7
:1056F0000EA8FFF7A1FCDDE90F010E9A039100212E
:1057000004910092BA4621070CD40399514500DA5E
:105710008A46BAF1010F05DD009AAAF10101515C38
:10572000302908D0B84202DA10F1040F06DA01215C
:10573000CDE9011015E0AAF10101E9E7002805DC37
:10574000049901440491AAEB000102E0411C514577
:1057500000DD8A460499401A401C01904FF0004039
:105760000290200704D40198504501DBCDF8048055
:1057700000208DF84F0002980DF14F07B0F1004F57
:1057800025D02B200E9002984FF0020800280CDA4A
:10579000404202902D200E9007E00A210298FAF76D
:1057A000C5FF3031029007F8011DB8F10001A8F1E2
:1057B0000108F2DC02980028EFD1791E0E980870DB
:1057C000307800F0200040F0450007F8020D12A8E4
:1057D000C01B00F107081498007800B1012000EB0D
:1057E0000A01019801EBE07105984144401A401EFE
:1057F0000590E00306D45B462146179A059800F011
:105800005DF805441498007818B15A4617999047E6
:105810006D1CE00324D55B462146179A059800F0DD
:105820004DF805441CE00498002807DBDDE903017E
:10583000884203DD0098405C179901E017993020F9
:105840005A469047049805F10105401C04900198C0
:10585000401E019004D12E205A46179990476D1C86
:10586000BAF10001AAF1010ADDDC05E017F8010B2D
:105870005A46179990476D1CB8F10001A8F101082C
:10588000F4DC5B462146179A0598ABE62D00000034
:105890002B000000200000002DE9F0410446002507
:1058A0001E461746880404D405E039462020B04738
:1058B0006D1C641EF9D52846BDE8F0812DE9F04144
:1058C000044600251E469046C80301D5302700E057
:1058D0002027880404D505E041463846B0476D1CB2
:1058E000641EF9D52846BDE8F0812DE9F041044653
:1058F0000D4660882188401A471C384607EBD07156
:10590000228802EB6101491B1FFA81F8464605E037
:105910003046A168FFF790F8701C86B208EB45008E
:10592000B042F5DCBDE8F08110B500F0C7F800F03A
:10593000AFF800F04FF800F063F800F005F800F061
:10594000E1F800F015F910BD00B587B001214FF462
:105950000170FBF7ABFF4FF40040FBF77BFF00202B
:105960008DF81B008020ADF8180006A91748FBF73A
:1059700001FE1748FBF7D8F8002001908DF80800C9
:105980008DF809004FF4602003900020049001205E
:105990008DF8140001A90E48FBF708F901210C4805
:1059A000FBF7B7F80A48FBF729F900BF0848FBF7EF
:1059B000F3F80028FAD10648FBF725F900BF0448A0
:1059C000FBF7E0F80028FAD107B000BD000801405D
:1059D0000024014008B501210520FBF767FF0320E3
:1059E0008DF8020004208DF803002020ADF800009F
:1059F00069460248FBF7BEFD08BD000000080140F3
:105A00001FB501210920FBF751FF03208DF80E007F
:105A100004208DF80F006020ADF80C0003A91B488E
:105A2000FBF7A8FD05210120FBF784FD2020019054
:105A300000208DF808000C208DF8090001208DF859
:105A40000A0001A8FBF72AFD06210120FBF772FDE1
:105A50004020019000208DF808000C208DF80900EE
:105A600001208DF80A0001A8FBF718FD17208DF81A
:105A7000000003208DF8010000208DF802000120B5
:105A80008DF803006846FBF733FE1FBD000C014094
:105A900008B501210420FBF709FF03208DF802005F
:105AA00004208DF803000820ADF800006946024884
:105AB000FBF760FD08BD00000008014008B50121AA
:105AC0000820FBF7F3FE03208DF8020010208DF86C
:105AD00003000001ADF8000069460948FBF74AFDE4
